:020000040800F2
:1000000078A6002045010008912800087316000812
:10001000F12300089D0A0008213F000800000000AD
:10002000000000000000000000000000493000084F
:10003000AD0F000800000000F12B0008FD330008A0
:100040005F0100085F0100085F010008B12E000891
:100050005F0100085F0100085F0100085F01000800
:100060005F0100085F0100085F0100085F010008F0
:100070005F0100085F0100085F0100085F010008E0
:100080005F0100085F0100085F0100085F010008D0
:100090005F0100085F0100085F0100085F010008C0
:1000A0005F0100085F0100085F0100085F010008B0
:1000B0005F0100085F0100085F0100085F010008A0
:1000C0005F0100085F0100085F0100085F01000890
:1000D0005F0100085F0100085F0100085F01000880
:1000E0005F0100085F0100085F0100085F01000870
:1000F0005F0100085F0100085F0100085F01000860
:100100005F0100085F0100085F0100085F0100084F
:100110005F0100085F010008A13400085F010008CA
:100120005F0100085F0100085F0100085F0100082F
:10013000DFF80CD000F07EFA0048004715470008B1
:1001400078A600200648804706480047FEE7FEE7FD
:10015000FEE7FEE7FEE7FEE7FEE7FEE7FEE7FEE777
:10016000013400083101000840EA01039B0703D075
:1001700009E008C9121F08C0042AFAD203E011F8E6
:10018000013B00F8013B521EF9D27047D2B201E0A8
:1001900000F8012B491EFBD270470022F6E710B58C
:1001A00013460A4604461946FFF7F0FF204610BDE5
:1001B000F0B480EA0102D40F4200B2EB410F02D248
:1001C0000246084611464A0042D0C30DDDB2C1F3D3
:1001D000C752AD1A202D35DAC1F3160141F40002E1
:1001E00004B15242C5F1200602FA06F12A41104438
:1001F000B3EBD05F23D0C4B1012DA0EBC35009DC19
:10020000F0BC4FF0004202EAC352DBB200F500003E
:1002100000F085B9400000F1807000EBC350A0F100
:10022000807040EAD170490009E0490841EAC07194
:10023000A0EBC35000F50000400800EBC350F0BC39
:1002400000F064B96142012202EB4101001BF6E7B4
:10025000F0BC704781F00041AAE780F00040A7E7BA
:1002600080EA010210B502F00043400022D04A00AB
:100270001FD0010E01EB1261C0F35600C2F356020B
:1002800040F4000042F40002A0FB022000047F3989
:10029000140400D0401C50EA124001D44000491E12
:1002A000C2B20C0604EBD010401C4008802A02D0D9
:1002B00003E0002010BD20F00100002900DA00203A
:1002C000184310BD30B480EA010202F0004530F05E
:1002D000004221F0004013D090B1C30DD40DC2F301
:1002E0001601C0F31600E41A41F4000140F40002C4
:1002F0007D34914201D3641C00E04900002C02DAF5
:1003000030BC002070474FF400000023914201D31D
:10031000891A034340084FEA4101F7D151B1914294
:1003200002D14FF0004105E002D24FF0010101E09F
:100330006FF0010103EBC450284430BC00F0E6B874
:100340002DE9FE4F81EA030404F0004421F000414E
:1003500000944FF0000B23F0004350EA01045ED0FC
:1003600052EA03045BD0C3F30A54C1F30A552C4488
:10037000A4F2F3340194A0FB0254C1F3130141F43D
:100380008011C3F3130343F4801301FB024400FB09
:10039000034E840A970A44EA815447EA8357A4FB30
:1003A000076802958D0A05FB07854FEA932C04FB2D
:1003B0000C542705029D4FEA065847EA1637B5EB5D
:1003C00008056EEB070C870E920E47EA811742EA8A
:1003D0008312A7FB0201B6EB0B0164EB00042B0DAB
:1003E00043EA0C335E1844EB1C50DA465146E7FBF7
:1003F0000201C5F313044FEA0B3343EA14534FEAE7
:100400000432019C43EA0603A4F10C040294009C0C
:10041000CDE900B400F0C0F803B0BDE8F08F0020D3
:100420000146F9E7C10F80EAE0700844CA07962345
:10043000002100F074B896230022114600F06FB836
:100440000EB540F2334102910021CDE900110A4678
:100450000B4600F0A1F803B000BD20F00040C10D34
:10046000C0F3160040F400007F2901DA0020704735
:10047000962903DCC1F19601C8407047963988403F
:10048000704770B5C1F30A5201F000450024C1F372
:10049000130140F2FF3341F480119A4201DA002047
:1004A00070BD40F233439A42A2F2334203DC52421F
:1004B00000F01CF800E090402C43F1D0404270BDA9
:1004C00030B50B46014600202022012409E021FA24
:1004D00002F59D4205D303FA02F5491B04FA02F521
:1004E0002844151EA2F10102F1DC30BD202A04DBF4
:1004F000203A21FA02F00021704721FA02F3D0409D
:10050000C2F1200291400843194670470029A8BF54
:100510007047401C490008BF20F00100704710B42C
:10052000B0FA80FC00FA0CF050EA010404BF10BCE1
:10053000704749B1CCF1200421FA04F411FA0CF10E
:1005400018BF012121430843A3EB0C01CB1D4FEA47
:1005500000614FEA102042BF002010BC704700EB42
:10056000C35010440029A4BF10BC7047401C490070
:1005700008BF20F0010010BC704710B5141E73F1C5
:10058000000408DA401C41F1000192185B411A4353
:1005900001D120F0010010BD2DE9F04D92469B469F
:1005A00011B1B1FA81F202E0B0FA80F22032904645
:1005B00000F052F804460F4640EA0A0041EA0B01F7
:1005C00053465A46084313D0114653EA010019D046
:1005D000C8F140025046FFF789FF05460E465046D7
:1005E0005946424600F038F8084305D0012004E09F
:1005F00020463946BDE8F08D0020054346EAE07606
:100600002C4337430A986305E40AA0EB0800002254
:10061000FD0A44EA47540A3002D500200146E9E7C2
:10062000010510196941DDE9084500196941BDE876
:10063000F04DA2E7064C074D06E0E06840F00103EC
:1006400094E8070098471034AC42F6D3FFF774FDE6
:100650003C4900085C490008202A04DB203A00FAE3
:1006600002F1002070479140C2F1200320FA03F309
:1006700019439040704770B58C1810F8015B15F065
:10068000070301D110F8013B2A1106D110F8012B04
:1006900003E010F8016B01F8016B5B1EF9D12B0729
:1006A00005D40023521E0DD401F8013BFAE710F8DF
:1006B000013BCB1A921C03E013F8015B01F8015BCC
:1006C000521EF9D5A142D8D3002070BD21B1826855
:1006D00042F00102826003E0826822F0010282603F
:1006E000704721B1826842F48072826003E08268C0
:1006F00022F4807282607047014600208A6802F00E
:1007000004020AB1012000E00020704701460020E9
:100710008A6802F008020AB1012000E00020704758
:1007200030B502460020002350680F4C20400D7960
:100730000C6844EA05242043506090680B4C20402C
:10074000D1E902542C434D7944EA4504204390609A
:10075000D06A20F470000C7C641EE4B2234340EAAB
:100760000350D06230BD0000FFFEF0FFFDF7F1FF47
:1007700000B591B00121480202F074FA0121084647
:1007800002F050FA334800F04DFB334801903348F3
:100790000290002003900590802006900120049094
:1007A00000200B904FF4806008908010079020206C
:1007B000099000020A9000200C9001208DF834006E
:1007C0008DF835004FF460200E9000200F9001202E
:1007D0008DF840000CA920484C38FFF7A1FF4FF4DA
:1007E000404002F013FA0523012202211A484C3836
:1007F00000F036F801A9174800F0BAFB01211548AE
:1008000000F004FB012114484C38FFF76AFF012176
:1008100011484C38FFF75AFF0F484C3800F07CF86D
:1008200000BF0D484C38FFF771FF0028F9D10A4886
:100830004C3800F081F800BF07484C38FFF75CFFE8
:100840000028F9D1012104484C3800F06AF811B0B1
:1008500000BD0000080002404C2401409A00002026
:10086000F0B504460D4600200021092D11DDE06899
:10087000A5F10A0606EB4607072606FA07F18843A4
:10088000A5F10A0606EB460603FA06F10843E06006
:100890000CE0206905EB4507072606FA07F18843B7
:1008A00005EB450603FA06F108432061072A0FDA33
:1008B000606B561E06EB86071F2606FA07F1884373
:1008C000561E06EB860605FA06F10843606322E031
:1008D0000D2A0FDA206BD61F06EB86071F2606FAB5
:1008E00007F18843D61F06EB860605FA06F1084392
:1008F000206310E0E06AA2F10D0606EB86071F26D2
:1009000006FA07F18843A2F10D0606EB860605FA02
:1009100006F10843E062F0BD816841F008018160A2
:10092000704721B1826842F4A002826003E08268CD
:1009300022F4A00282607047816841F00401816066
:100940007047000008B50121102002F08BF910203B
:100950008DF8030003208DF802000120ADF800009F
:100960006946024800F09CFD08BD000000100140EF
:100970000648007840B10648006940F0010004498B
:1009800008610120034908707047000099000020A9
:1009900000100140980000200EB50748027807A11A
:1009A000684603F0B3FC6A460021084602F0FEF8F0
:1009B000054800F01FFF0EBD99000020736F756E93
:1009C000643A256400000000411A000808B5014699
:1009D0000020009003480090009808440090009880
:1009E000008808BD006C004008B500220092044A4F
:1009F0000092009A02440092009A116008BD000023
:100A0000006C004010B501F041FA00F0FDFE03F06B
:100A10009DF900F089FE00F03BF8FFF793FF01F02D
:100A200075FC01F08DFE01F037FC02210A4800F050
:100A3000CDFD2021084800F0C9FD0121064800F045
:100A4000C5FD01F0BCFF05A003F050FC02F002FE62
:100A5000002000F0F3FC10BD000C0140486F6C6CEE
:100A60006520576F726C64210D0A000008B50121E2
:100A7000042002F0F7F804208DF80300ADF8000020
:100A80006946024800F00CFD08BD00000008014066
:100A900010B5FFF7EBFFFFF76BFE10BD00BFFEE7E1
:100AA00000200EE0002208494988C1F10701074BE8
:100AB00003EBC1130449098800EBC1015A54411CDE
:100AC000C8B20828EEDB7047281600202812002044
:100AD0002DE9FF4F85B0054614461E4604959DF846
:100AE0001870601BFFF79EFC03909DF81810701A99
:100AF000FFF798FC0290DDE90201FFF7E3FB0190AC
:100B00002846FFF798FC83460199FFF7A9FB814629
:100B10009DF81800FFF78FFC82464946FFF79AFBC5
:100B20008046A5421CD014E039469DF8100000F024
:100B300027F89DF81000FFF77EFC83460199FFF728
:100B40008FFB82464146FFF733FB8146FFF785FC6A
:100B5000C7B2214604A802F04CF8A042E4D10BE051
:100B600004E09DF81810284600F00AF8314606A85F
:100B700002F03FF8B042F4D1002009B0BDE8F08F98
:100B800030B50246402901DB012030BDC1F13F00F4
:100B9000C51700EB5575C5F3C703C1F13F00C51775
:100BA00000EB5575ED10A0EBC505ECB2064800EB67
:100BB000C310805C0125A540A843034D05EBC31578
:100BC000A8540020E1E70000281200202DE9F041A0
:100BD00004460D4617461E46701EC6B2E019C2B244
:100BE0002B4629462046FFF773FFA81BC3B22246B7
:100BF00029462046FFF76CFFA91BCBB2E119CAB208
:100C0000E119C8B22946FFF763FFA81BC3B2E01978
:100C1000C2B2A81BC1B22046FFF75AFFBDE8F0815F
:100C200010B51248006840694069F0B10F4800688B
:100C300040690F4908600D480068406940690B49E8
:100C400008600B4800680B49086004E00948006828
:100C5000C0690849086007480068C0690028F5D1E4
:100C60004FF480610448FFF798FA10BDE8110020A6
:100C7000F0110020EC110020281200202DE9F04195
:100C800005460F4690462DB91AA003F02FFB002011
:100C9000BDE8F081282003F051FD04461CB119A0E5
:100CA00003F024FB07E01AA003F020FB204603F02A
:100CB00009FD0020ECE7EC61A5610020E0612878E7
:100CC000401C20706869606100202062002607E0F7
:100CD000B95D601C8155805D00B903E0701CC6B22F
:100CE000102EF5DB00BF00212174C4F824802046BB
:100CF000CEE700004D656E75206973204E554C4C53
:100D00000D0A0000637265617421200D0A00000065
:100D100072616D206572726F720D0A002DE9F041EB
:100D200006460F469046306A28B119A003F0DEFA55
:100D30000020BDE8F081282003F000FD04461CB12E
:100D40001BA003F0D3FA07E01CA003F0CFFA204663
:100D500003F0B8FC0020ECE734620020A061E06101
:100D600001202070666100202062002507E0795D87
:100D7000601C4155405D00B903E0681CC5B2102DF0
:100D8000F5DB00BF00212174C4F824802046D0E7A1
:100D90004D656E755F4E6578745F4974656D20684A
:100DA000616420637265617465640D0A000000006F
:100DB000637265617421200D0A00000072616D206C
:100DC0006572726F720D0A002DE9F04106460F46FA
:100DD000282003F0B3FC044601202070002507E022
:100DE000715D601C4155405D00B903E0681CC5B2EF
:100DF000102DF5DB00BF002121740020606120620E
:100E0000A061E06167622046BDE8F08121B102681F
:100E100042F00102026004E002684FF6FE731A40DD
:100E20000260704701684FF6FE72114001600021B8
:100E3000016041608160C1604B49884208D14A49E4
:100E40000839496841F00F01474A083A51608AE081
:100E500045491431884208D143490839496841F06D
:100E6000F001414A083A51607DE03F49283188420B
:100E700008D13D490839496841F470613A4A083A55
:100E8000516070E038493C31884208D13649083910
:100E9000496841F47041344A083A516063E032498C
:100EA0005031884208D130490839496841F47021ED
:100EB0002D4A083A516056E02B496431884208D1E6
:100EC00029490839496841F47001274A083A5160B4
:100ED00049E025497831884208D1234908394968D1
:100EE00041F07061204A083A51603CE01F49884255
:100EF00006D1011F096841F00F01021F116032E0A5
:100F00001A491431884208D11849091F096841F06B
:100F1000F001164A121F116025E014492831884259
:100F200008D11249091F096841F470610F4A121F64
:100F3000116018E00D493C31884208D10B49091F66
:100F4000096841F47041094A121F11600BE007491A
:100F50005031884207D10549091F096841F47021C1
:100F6000024A121F11607047080002400804024044
:100F700010B50022026847F6F0739A430C6A8B683A
:100F800023430C6923434C6923438C692343CC6975
:100F900023434C6A23438C6A23431A430260CB6881
:100FA00043600B6883604B68C36010BD70470020CE
:100FB00001E0411CC8B20A28FBDB7047002001E0B9
:100FC000411CC8B20A28FBDB704701B502E000985B
:100FD000401E009000980028F9D108BD01B502E03C
:100FE0000098401E009000980028F9D108BD00002C
:100FF00000200EE0FF2208494988C1F10701074B94
:1010000003EBC1130449098800EBC1015A54411C88
:10101000C8B20828EEDB7047061200202812002014
:1010200010B565480078012822D100241BE06348F0
:1010300030F8241062480078401E604A32F82000E0
:1010400081420ED1104600EB840041885C48007854
:10105000401E02EB80004088814202D100205649A8
:101060000870601CC4B256480078401EA042DEDC06
:101070005148007801284AD151480078401E4F4914
:1010800031F820004F490988884241D14C48007806
:10109000401E4A4901EB800040884A4949888842FD
:1010A00036D147480078401C454908700978891EA8
:1010B000424A32F82110444A92F900208818C11798
:1010C00000EB11710911A0EB01118AB23C490978BA
:1010D000491E3A4B23F8212039490978891E1A46BE
:1010E00002EB81014988394A92F900208818C1171A
:1010F00000EB5171C910A0EBC1018AB230490978E7
:10110000491E03EB81014A8000203149087051E0FB
:10111000FFF7C6FC00240EE02849601C31F82000CF
:1011200021F82400601C01EB8000408801EB840161
:101130004880601CC4B222480078401EA042EBDC0C
:101140001F490978491E1D4A32F821101E4A92F99A
:1011500000208818C11700EB11710911A0EB0111D3
:101160008AB217490978491E144B23F821201449E3
:101170000978491E1A4602EB81014988134A92F9FF
:1011800000208818C11700EB5171C910A0EBC101F4
:101190008AB20B490978491E03EB81014A80002479
:1011A00004E0204600F016F8601CC4B20448007841
:1011B0008442F6DB10BD00000D120020281600202E
:1011C0000A120020061200200B1200200C12002030
:1011D0000E12002010B5002111E0FF23094A02EB96
:1011E00080025288C2F10702074C04EBC214054A80
:1011F00032F8202001EBC202A3544A1CD1B20829C4
:10120000EBDB10BD28160020281200202DE9FF4F2F
:1012100085B0054614461E4604959DF81870601B5F
:10122000FFF700F903909DF81810701AFFF7FAF80D
:101230000290DDE90201FFF745F801902846FFF72B
:10124000FAF883460199FFF70BF881469DF81800DC
:10125000FFF7F1F882464946FEF7FCFF8046A542BB
:101260001CD014E039469DF8100000F027F89DF8D6
:101270001000FFF7E0F883460199FEF7F1FF824680
:101280004146FEF795FF8146FFF7E7F8C7B22146D2
:1012900004A801F0AEFCA042E4D10BE004E09DF80C
:1012A0001810284600F00AF8314606A801F0A1FC03
:1012B000B042F4D1002009B0BDE8F08F30B502464D
:1012C000402901DB012030BDC1F13F00C51700EB13
:1012D0005575C5F3C703C1F13F00C51700EB557540
:1012E000ED10A0EBC505ECB2064800EBC310805C26
:1012F0000125A5402843034D05EBC315A854002044
:10130000E1E70000281200202DE9F04104460D46D7
:1013100017461E46701EC6B2E019C2B22B462946B9
:101320002046FFF773FFA81BC3B22246294620467A
:10133000FFF76CFFA91BCBB2E119CAB2E119C8B221
:101340002946FFF763FFA81BC3B2E019C2B2A81B6E
:10135000C1B22046FFF75AFFBDE8F08110B516A2D2
:101360000021084601F022FC17A20021012001F013
:101370001DFC19A20021022001F018FC1AA2002174
:10138000032001F013FC1CA20021042001F00EFC3C
:101390001DA20021052001F009FC1FA2002106204A
:1013A00001F004FC20A20021072001F0FFFB2248ED
:1013B00000F020FA10BD00004E616D653A4D595F96
:1013C000576174636800000045646974696F6E3A20
:1013D0003C312E303E00000046756E6374696F6EBE
:1013E0003A20202020000000546F6F6C2020202025
:1013F000202020202000000054696D65202020203E
:10140000202020202000000047616D652020202042
:1014100020202020200000007365635F7469636BE7
:1014200020202020200000004261636B202020202B
:101430002020202020000000E11C000870B5064696
:10144000002415E004F1B001C8B201F08CFA0020CC
:1014500001F089FA102001F086FA002504E03046F8
:1014600001F097FA681CC5B2802DF8DB601CC4B28D
:10147000082CE7DB70BD00001FB506A1684602F02E
:1014800045FF6A461421002001F090FB02F0C2FAE9
:101490001FBD00003C47414D45204D554E453E0087
:1014A0002DE9F041024600250026002000230024FB
:1014B000002791F803C00CF00F0591F803C00CF061
:1014C000100CBCF1000F03D091F802C04CEA0505E6
:1014D00091F800C0BCF1000F31D0146800202BE05F
:1014E0004FF0010C0CFA00F3B1F800C00CEA03064F
:1014F0009E4220D183004FF00F0C0CFA03F7BC433F
:1015000005FA03FC4CEA040491F803C0BCF1280F6F
:1015100006D14FF0010C0CFA00FCC2F814C00AE02E
:1015200091F803C0BCF1480F05D14FF0010C0CFA43
:1015300000FCC2F810C0401C0828D1D31460B1F8D8
:1015400000C0BCF1FF0F34DD546800202EE000F134
:10155000080C4FF0010808FA0CF3B1F800C00CEACF
:1015600003069E4221D183004FF00F0C0CFA03F7C3
:10157000BC4305FA03FC4CEA040491F803C0BCF137
:10158000280F05D100F1080C08FA0CF8C2F81480F5
:1015900091F803C0BCF1480F07D100F1080C4FF0DF
:1015A000010808FA0CF8C2F81080401C0828CED3B5
:1015B0005460BDE8F0810246002093680B400BB1F7
:1015C000012000E0002070474161704701617047D1
:1015D000F0B58DB004463022224901A8FEF7C4FDC3
:1015E0006069451E642195FBF1F12846EA1705EB79
:1015F0009272C1EBA2014FF4C87295FBF2F28F1800
:101600006069C11700EB91718910A0EB810191B95C
:101610006422616991FBF2F302FB131131B992006C
:10162000616991FBF2F302FB131121B921690229CF
:1016300001DD012600E0002640F26D1005FB00717F
:101640002069401E01AA52F820000844E1680844BD
:101650000644072096FBF0F100FB1160A0610DB07D
:10166000F0BD0000F048000810B50446A047002077
:1016700010BD00BFFEE7000010B54FF480610C48BC
:10168000FFF7A4FF4FF400610948FFF79FFFFFF742
:1016900095FC4FF480610648FFF796FFFFF78EFC3C
:1016A0004FF400610248FFF78FFFFFF787FC10BD82
:1016B000000C014010B54FF480610848FFF784FF2B
:1016C0004FF400610548FFF781FFFFF777FC4FF407
:1016D00080610248FFF77AFF10BD0000000C014056
:1016E00010B54FF480610F48FFF770FFFFF766FCFD
:1016F0004FF400610B48FFF769FFFFF75FFC4FF401
:1017000080610848FFF757FF08B1012400E000247A
:101710004FF400610348FFF757FFFFF74FFC2046E7
:1017200010BD0000000C014008B50121082001F0A7
:1017300099FA14208DF803004FF44060ADF80000D2
:1017400003208DF8020069460248FFF7A9FEFFF763
:10175000B1FF08BD000C014010B50020FFF76EFE80
:101760004FF480611E48FEF718FD02201D490870E5
:1017700001211C480078401E1B4A22F820101948FD
:101780000078401E02EB8000418000201146088056
:101790000120488005201549088048800020144910
:1017A0000870002404E02046FFF714FD601CC4B25A
:1017B0000C4800788442F6DB00240EE000210B4840
:1017C0004088C0F10700064A02EBC01207480088B3
:1017D00004EBC0001154601CC4B2082CEEDB10BD39
:1017E000281200200A1200202816002006120020CD
:1017F0000E12002070B50446002500F0BDFA00F07E
:1018000091FAA047284670BD08B50121142001F0C7
:1018100029FA04208DF803000120ADF80000694684
:101820000548FFF73DFE4FF40050ADF80000694653
:101830000248FFF735FE08BD0008014000100140D6
:1018400070B50446002514B1012C0DD105E001212D
:101850000A48FFF7B0FE05460CE04FF40051084877
:10186000FFF7A9FE054605E001210448FFF7A3FEA6
:10187000054600BF00BF284670BD000000080140BB
:101880000010014010B515484078012824D10020EF
:1018900012494870FFF76CF81048C07801280CD145
:1018A00000200E49C87008460078A8B108460078A4
:1018B000012811D100F06EFD0EE00848007850B903
:1018C00007490978481C00EBD0714910A0EB410191
:1018D000034A117000E000BF10BD0000210000208D
:1018E0008411002010B552484078012818D10020FA
:1018F0004F494870FFF73CF84D48C078012810D197
:1019000000204B49C87008460078002808D00846D7
:1019100000780128EAD1474801F07EFE00F03AFD48
:1019200085E04348007890B943480078082803DAF6
:101930003720414908707AE03F480078083837215D
:1019400090FBF1F201FB12003B4908706FE0384850
:10195000007801286BD139490978C1F13700C117E6
:1019600000EB5171C91007295FD2DFE801F00410C4
:1019700020323D4853002F484069401C4FF4FF611E
:1019800090FBF1F201FB12002A4948614EE0294820
:101990000069401C0D2190FBF1F201FB120025496A
:1019A00008610846006908B9012008613EE0214944
:1019B000C968481CC11700EBD1614911A0EB411166
:1019C0001C4AD1601046C06810B901201146C86099
:1019D0002CE018488069401C072190FBF1F201FBC4
:1019E00012001449886121E012488068401C1821C7
:1019F00090FBF1F201FB12000E49886016E00D48E1
:101A00004068401C3C2190FBF1F201FB12000949A7
:101A100048600BE007480068401C3C2190FBF1F255
:101A200001FB12000349086000E000BF00BF10BDC9
:101A3000210000207C0000202B0000202A00002034
:101A400010B51A48407801282FD100201749487056
:101A5000FEF78EFF1548C07801280CD100201349ED
:101A6000C8700846007800B30846007801281CD1E9
:101A700000F090FC19E00D48007848B90C48007857
:101A8000052812DA0A480078401C094908700CE061
:101A900006480078012808D105480078002804DDB0
:101AA00003480078401E0249087010BD2100002044
:101AB0009900002010B51C484078012832D1002040
:101AC00019494870FEF754FF1748C07801280FD114
:101AD00000201549C8700846007810B900F05AFC7B
:101AE00020E01148007801281CD100F027FC19E003
:101AF0000D48007848B90D480068806990B10B48DE
:101B000000688069094908600CE0074800780128EE
:101B100008D106480068C06920B104480068C0695F
:101B20000249086010BD000021000020F0110020D3
:101B300010B525484078012844D10020224948703A
:101B4000FEF716FF2048C078012819D100201E4951
:101B5000C8700846007860B91C48007800B30020BF
:101B60001B490870FF201B490870012017490870A5
:101B700028E015480078012824D100F00BFC21E072
:101B80001148007868B91148007803281AD0FF205E
:101B90000F49087000200F49087002200B49087097
:101BA00010E00948007801280CD108480078022884
:101BB00008D001200649087000200649087003205B
:101BC0000249087010BD0000210000200F12002003
:101BD0000B1200200C12002010B53A484078012862
:101BE0006FD1002037494870FEF7C2FE3548C078F3
:101BF00001280DD100203349C8700846007800281C
:101C00005FD00846007801285BD100F0C3FB58E0A4
:101C10002C48007800283DD12B480078062832D285
:101C2000DFE800F003091119212901202749087074
:101C30002549087027E026480088264908800220A8
:101C4000214908701FE0224800882249488003206B
:101C50001D49087017E01E4800881E49888004202E
:101C6000194908700FE01A4800881A49C8800520F1
:101C70001549087007E000201449087014490880CD
:101C80001149087000BF00BF4FF480611248FEF791
:101C900084FA16E00B480078012812D10F49087821
:101CA0000978491C0D4A117000EBD0714910A0EB66
:101CB000410119B100200549087002E001200349E3
:101CC000087010BD21000020111200201600002015
:101CD00014000020121200202812002010120020F0
:101CE00010B50F484078012819D100200C494870E0
:101CF000FEF73EFE0A48C07801280CD100200849B2
:101D0000C8700846007850B108460078012806D10E
:101D100000F040FB03E00248007800B100BF10BDB6
:101D20002100002010B507488078012808D1002044
:101D3000044988700846C278017803A002F0D6FAF8
:101D400010BD0000210000200D0A4B65795F6D7306
:101D5000672E6964203D202564200D0A4B65795F5C
:101D60006D73672E6C6F6E675F7072657373203D65
:101D70002025642000000000002000BF2CE018494E
:101D800001EB80018978012924D10021144A02EB5A
:101D900080029170124901EB80014978012905D137
:101DA000104908703221104A117013E00C4901EB00
:101DB0008001C978012907D10021094A02EB80027C
:101DC000D170094A117002E00121074A1170012106
:101DD000044A5170411CC8B20228D0DB7047000091
:101DE00019000020210000201800002010B5002458
:101DF00000BF1CE02046FFF723FD0E4901EB8401E4
:101E000048700C4800EB840040780A4911F824100F
:101E100088420AD0074800EB84004078054901F861
:101E20002400012001EB84018870601CC4B2022CE4
:101E3000E0DB10BD19000020002011490978E9B14C
:101E40000F490978491E0E4A117011460978A9B93F
:101E500000BF11E00B4901EB80014978012909D14C
:101E6000094908700121084A9170D170054A02EBB6
:101E70008002D170411CC8B20228EBDB7047000021
:101E800018000020190000202100002008B50121C1
:101E9000082000F0E7FE2020ADF8000010208DF8AB
:101EA000030003208DF8020069460F48FFF7F8FA97
:101EB0000120ADF8000069460B48FFF7F1FA022057
:101EC000ADF8000069460848FFF7EAFA2021064805
:101ED000FFF77CFB01210448FFF778FB0221024851
:101EE000FFF774FB08BD0000000C01401FB54FF464
:101EF00080610848FEF751F907A1684602F006FA2A
:101F00006A461421002000F051FE064801F0BCFC96
:101F10001FBD0000281200203C4D41494E204D5568
:101F20004E453E00840C00202DE9F0478AB08648DB
:101F30000088642190FBF1F201FB12000A2190FB62
:101F4000F1F201FB120580480088642190FBF1F258
:101F500001FB12000A2190FBF1F67B48008841F258
:101F6000707190FBF1F201FB1200642190FBF1F023
:101F70000A2190FBF1F201FB12077348008841F23D
:101F8000707190FBF1F201FB1200642190FBF1F003
:101F90000A2190FBF1F86C48008841F2707190FBC7
:101FA000F1F00A2190FBF1F201FB1209664800886A
:101FB00041F2707190FBF1F00A2190FBF1FA4B466F
:101FC000524662A106A8CDE90087CDE9026502F07C
:101FD0009DF99DF81D0030388006020E5F4B702180
:101FE000002001F0D7F99DF81C0030388006020E61
:101FF0005A4B6021002001F0CDF99DF81B003038CC
:102000008006020E554B4021002001F0C3F99DF8D7
:102010001A0030388006020E504B3021002001F0AB
:10202000B9F94E4B28222021002001F0B3F99DF888
:10203000190030388006020E484B1021002001F0B4
:10204000A9F99DF8180030388006020E434B002194
:10205000084601F09FF9012466E0601E404931F80E
:102060001000642190FBF1F201FB12000A2190FBA9
:10207000F1F201FB1205601E394931F810006421AC
:1020800090FBF1F201FB12000A2190FBF1F6601EB9
:10209000334931F8100041F2707190FBF1F201FB0D
:1020A0001200642190FBF1F00A2190FBF1F201FB98
:1020B0001207601E2A4931F8100041F2707190FB3E
:1020C000F1F201FB1200642190FBF1F00A2190FB78
:1020D000F1F8601E224931F8100041F2707190FB56
:1020E000F1F00A2190FBF1F201FB1209601E1C497C
:1020F00031F8100041F2707190FBF1F00A2190FB71
:10210000F1FA5346224617A106A8CDE90098CDE979
:102110000276049502F0FAF8E11CC8B206AA002182
:1021200000F044FD601CC4B213480078844294DB84
:1021300020237F223F210020FFF7E6F80F48FFF71A
:1021400059FB0AB0BDE8F08714000020256425641F
:1021500025642564256425640000000084090020AE
:102160001212002025643A2020256425643A256453
:1021700025643A256425640011120020D91B00084B
:102180001FB50748027807A1684602F0BFF86A4603
:102190000021084600F00AFD0548FFF72BFB1FBD94
:1021A000841100204D4F44203D2025640000000094
:1021B0008518000810B5044640211048FFF704FABE
:1021C00024B180210D48FFF7FFF903E080210B487F
:1021D000FFF7FCF9FEF7EBFE40210848FFF7F6F9A0
:1021E000FEF7E5FE40210548FFF7EEF980210348A0
:1021F000FFF7ECF9FEF7DBFE10BD0000000C01401C
:1022000010B580210A48FFF7E1F940210848FFF79F
:10221000DDF9FEF7CCFE80210548FFF7D5F9FEF782
:10222000C6FE40210248FFF7CFF9FEF7C0FE10BD01
:10223000000C014010B580210648FFF7C5F9402188
:102240000448FFF7C3F9FEF7B2FE80210148FFF70B
:10225000BDF910BD000C014010B580210D48FFF7FD
:10226000B5F9FEF7A4FE40210A48FFF7AFF9FEF7E3
:102270009EFE80210748FFF79EF908B1012400E087
:10228000002440210348FFF79FF9FEF790FE204607
:1022900010BD0000000C014008B500216B2002F0C9
:1022A0000DF80721192002F009F804211A2002F084
:1022B00005F808211B2002F001F800211C2001F084
:1022C000FDFF01226946752000F06CFE9DF80010AC
:1022D00005A002F00BF89DF80000682802D104A0C8
:1022E00002F004F808BD000025640D0A000000009B
:1022F0006D70753630353020496E697420537563C2
:102300006365737366756C0D0A00000008B50121E2
:10231000082000F0A7FC14208DF80300C020ADF8C1
:10232000000003208DF8020069460348FFF7B8F863
:10233000FFF780FF08BD0000000C014010B51148F8
:102340000068F0B101F054FC0E4800680E490860C6
:1023500008460068006A0B490860084600680B4997
:10236000086004E009480068C06908490860074837
:102370000068C0690028F5D14FF480610448FDF77A
:102380000CFF10BDF0110020E8110020EC1100201E
:102390002812002010B5124800684069F0B101F021
:1023A00027FC0F4800680F4908600D480068406925
:1023B0000B4908600B4800680B49086004E00A48B4
:1023C0000068C0690849086007480068C0690028BB
:1023D000F5D14FF480610548FDF7DFFE10BD000028
:1023E000E8110020F0110020EC110020281200203C
:1023F00000BFFEE710B55A495AA0FEF7E5FC5D495B
:1024000008605D4A5DA15B480068FEF787FC5F4994
:1024100008605F4A5FA15D480068FEF77FFC614984
:102420000860614A61A15F480068FEF727FC6349C4
:102430000860634A63A161480068FEF71FFC6549B4
:102440000860654A65A163480068FEF717FC6749A4
:102450000860674A67A165480068FEF70FFC694994
:102460000860694A69A14F480068FEF757FC6B494C
:1024700008606B4A6BA169480068FEF7FFFB6D4975
:1024800008606D4A6DA16B480068FEF7F7FB6F4965
:102490000860574A6EA16D480068FEF7EFFB70496F
:1024A0000860704A70A145480068FEF737FC734920
:1024B0000860734A73A171480068FEF7DFFB754935
:1024C00008606F4A74A173480068FEF7D7FB76492D
:1024D00008606B4A75A174480068FEF7CFFB774926
:1024E0000860674A76A175480068FEF7C7FB78491F
:1024F0000860634A77A176480068FEF7BFFB794918
:1025000008605F4A78A177480068FEF7B7FB7A4910
:1025100008605B4A79A178480068FEF7AFFB7B4909
:102520000860574A7AA179480068FEF7A7FB7C4902
:1025300008602F4A7BA17A480068FEF79FFB7D491F
:1025400008600C4800687C4908600A480068006A16
:102550007A4908600846006877490968086210BD32
:102560007D3F000854696D65202020202020202018
:102570002020200088110020ED1E00084469616CB5
:102580006F676F2020202020200000008C11002089
:1025900009300008546F6F6C20202020202020205C
:1025A00020202000901100207914000847616D65FB
:1025B000202020202020202020202000A4110020E6
:1025C000812100084D4F445F446973706C6179202C
:1025D00020202000D4110020291F00085365635FCC
:1025E0007469636B2020202020202000D811002057
:1025F000210C0008436F6D654261636B2020202031
:1026000020202000E01100205D130008456469745B
:10261000696F6E20202020202020200094110020AF
:102620006136000854696D655F5365742020202071
:10263000202020009811002099090008536F756E22
:10264000645F536574202020202020009C1100200E
:102650004578697420202020202020202020200080
:10266000A01100206134000847616D6531202020F1
:10267000202020202020202020000000A811002061
:10268000253F000847616D65322020202020202052
:1026900020202000AC11002047616D6533202020F0
:1026A0002020202020202000B011002047616D65EF
:1026B000342020202020202020202000B4110020C1
:1026C00047616D653520202020202020202020001B
:1026D000B811002047616D65362020202020202081
:1026E00020202000BC11002047616D65372020208C
:1026F0002020202020202000C011002047616D658F
:10270000382020202020202020202000C41100205C
:1027100047616D65392020202020202020202000C6
:10272000C81100204261636B20202020202020203F
:1027300020202000CC110020E8110020F011002002
:1027400010B500F091F801214FF0C05000F07AFA76
:10275000012000F047FA0420FEF738F94AF2A551AB
:10276000884218D00420FEF731F9044621461FA004
:1027700001F0BCFD204800F04FFF01214FF0C05098
:1027800000F060FA012000F02DFA4AF2A551042071
:10279000FEF72AF921E001214FF0C05000F052FA73
:1027A000012000F01FFA7B2000F0E0FA18B113A01E
:1027B00001F09CFD06E07A2000F0D8FA10B118A0D4
:1027C00001F094FD1FA001F091FD00F0B7FB012185
:1027D000084600F07BFB00F0A7FB00F053FA00BFB7
:1027E000204800680028FBD010BD00000D0A424BB5
:1027F00050203D20256400007C0000200D0A0D0AB9
:1028000020506F776572204F6E205265736574207B
:102810006F636375727265642E2E2E2E00000000A9
:102820000D0A0D0A2045787465726E616C20526540
:10283000736574206F636375727265642E2E2E2E1D
:10284000000000000D0A204E6F206E656564207444
:102850006F20636F6E666967757265205254432EF0
:102860002E2E2E007800002008B54FF4C06000F036
:102870005BF803208DF8000001208DF803008DF82F
:10288000010000208DF80200684600F015F808BD30
:10289000704708B54FF4A06000F046F825208DF889
:1028A000000001208DF801008DF802008DF8030072
:1028B000684600F001F808BD70B5002100230F2222
:1028C000C47804B3154C246804F4E064C4F5E064EF
:1028D000210AC1F10403CA40447804FA03F1847860
:1028E0001440214309010E4C0678A155047804F0E8
:1028F0001F050124AC4005786D11AD0005F1E02500
:10290000C5F8004109E0047804F01F050124AC403B
:10291000044D0678761145F8264070BD0CED00E0B8
:1029200000E400E080E100E002490143024A116056
:10293000704700000000FA050CED00E008B54FF408
:10294000C060FFF7F1FF36208DF8000000208DF801
:10295000010003208DF8020001208DF80300684675
:10296000FFF7AAFF08BD10B50446FEF785FE7820E4
:1029700000F012FCFEF7B4FE002000F00DFCFEF7A4
:10298000AFFE204600F008FCFEF7AAFEFEF792FE1E
:1029900010BD10B50446FEF76FFE782000F0FCFB7A
:1029A000FEF79EFE402000F0F7FBFEF799FE204662
:1029B00000F0F2FBFEF794FEFEF77CFE10BD10B5B2
:1029C000AE20FFF7D0FF2020FFF7CDFF1020FFF74C
:1029D000CAFFB020FFF7C7FFC020FFF7C4FF0020E9
:1029E000FFF7C1FF1020FFF7BEFF4020FFF7BBFF3E
:1029F0008120FFF7B8FFDF20FFF7B5FFA020FFF72A
:102A0000B2FFA620FFF7AFFFA820FFF7ACFF3F20E3
:102A1000FFF7A9FFA420FFF7A6FFD320FFF7A3FF2E
:102A20000020FFF7A0FFD520FFF79DFFF020FFF764
:102A30009AFFD920FFF797FF2220FFF794FFDA20B3
:102A4000FFF791FF1220FFF78EFFDB20FFF78BFFD0
:102A50002020FFF788FF8D20FFF785FF1420FFF768
:102A600082FFAF20FFF77FFF10BD000070B5064664
:102A70000024002500BF32E004F1B001C8B2FFF726
:102A800072FF0020FFF76FFF1020FFF76CFFFEF7CB
:102A9000F3FD782000F080FBFEF722FE402000F0DE
:102AA0007BFBFEF71DFE002513E046B10D4901EB4F
:102AB000C411495DC943C8B200F06EFB05E0094985
:102AC00001EBC411485D00F067FBFEF709FE681CCE
:102AD000C5B2802DE9DBFEF7EDFD601CC4B2082C09
:102AE000CADB70BD281200202DE9F041002400252A
:102AF00000BF10E003EBC20C2E466F1CFDB21CF8A9
:102B000006C0074E06EBC0180E464F1CF9B208F877
:102B100006C0661CF4B2082CECDBBDE8F0810000B6
:102B2000281200202DE9F041044600250026002748
:102B30008C4600BF1BE06146002512E000290ADB3D
:102B40007F2908DC03EBC210805DDFF82C8008EBE6
:102B5000C41808F80100481C41B2701CC6B2681CB9
:102B6000C5B2202DEADB601CC4B2781CC7B2042FAA
:102B7000E1DB0120BDE8F08128120020F0B5064617
:102B80000F461446202C01DB7E2C01DD0020F0BD19
:102B9000A4F12000C5B2044B2A4639463046FFF75F
:102BA000A3FF0120F3E700008C06002070B5054666
:102BB0000E46144610E0072D00DD10E0782E02DDF1
:102BC0000026681CC5B2227831462846FFF7D6FF9A
:102BD00006F10800C6B2641C20780028EBD100BFC3
:102BE00070BD0000014908627047000000000E42FD
:102BF00070470246107813788B4203DA13785B1C17
:102C0000137002E013785B1E1370704701460020BA
:102C1000034A506820F44040084350607047000069
:102C20000010024029B1064A52690243044B5A611E
:102C300004E0034A52698243014B5A617047000025
:102C40000010024029B1064AD2690243044BDA61FE
:102C500004E0034AD2698243014BDA617047000005
:102C60000010024029B1064A92690243044B9A615E
:102C700004E0034A92698243014B9A617047000065
:102C8000001002400348406A40F0807001494862E9
:102C9000704700000010024030B5002100220024DF
:102CA00000232D4D6D6805F00C0121B1042905D0DC
:102CB000082923D105E0294D056022E0274D056054
:102CC0001FE0254D6D6805F47012234D6D6805F405
:102CD0008034022505EB92421CB9214D5543056015
:102CE0000BE01D4D6D6805F400351DB11C4D5543BD
:102CF000056002E0194D5543056002E0174D05607F
:102D000000BF00BF144D6D6805F0F0010909154DB5
:102D10006B5C0568DD4045600F4D6D6805F4E06152
:102D2000090A104D6B5C4568DD4085600A4D6D6891
:102D300005F46051C90A0B4D6B5C4568DD40C56008
:102D4000054D6D6805F44041890B074D6B5CC56806
:102D5000B5FBF3F5056130BD0010024000127A00AA
:102D600000093D00000000201000002010B50146C1
:102D70000022002300204A11012A02D1094C2368B5
:102D800006E0022A02D1074C236A01E0054C636A7F
:102D900001F01F02012494401C400CB1012000E00E
:102DA000002010BD0010024000210B4A11700A4A99
:102DB000203A82F82010012802D0042808D103E02C
:102DC0000121054A117004E00521034A117000E059
:102DD00000BF00BF7047000020100240014908609A
:102DE000704700003C0442420249096A0143014A1B
:102DF0001162704700100240024909888143014A6C
:102E0000118070470428004010B501214FF0C050D8
:102E1000FFF718FF0120FFF7E5FE0120FFF7C4FFD1
:102E200000BF4120FFF7A2FF0028FAD04FF48070C6
:102E3000FFF7DAFF0120FFF7D1FF00F07FF800F085
:102E400073F80121084600F041F800F06DF847F6EC
:102E5000FF7000F059F800F067F810BD03480088D3
:102E600040F010000149088070470000042800402D
:102E7000034800884FF6EF71084001490880704709
:102E800004280040002103480188001F008841EA0F
:102E9000004070471C28004001460020034A128869
:102EA0000A400AB1012000E00020704704280040D9
:102EB00010B50120FFF7F0FF012804D1FFF79CFFB8
:102EC00001200149086010BD7800002029B1064AA0
:102ED00012880243044B1A8004E0034A128882439A
:102EE000014B1A80704700000028004000B50246E0
:102EF000FFF7B4FF100C03490880091D0A80FFF793
:102F0000B7FF00BD1828004000B50246FFF7A6FF36
:102F1000C2F3034003490880091D0A80FFF7A8FF98
:102F200000BD00000828004000BF0348008800F0F2
:102F300020000028F9D07047042800400748008886
:102F40004FF6F77108400549088000BF0348008824
:102F500000F008000028F9D0704700000428004065
:102F600070B50025002400BF16E06006040E402165
:102F70000B48FEF72BFBFEF71AF880210848FEF7F6
:102F80001AFB08B1601CC4B240210548FEF71CFBC7
:102F9000FEF70DF8681CC5B2082DE6DB204670BDB3
:102FA000000C01402DE9F04107460C46154600266D
:102FB000FFF726F9D02000F0C3F8FFF74DF93846A7
:102FC00000F0BEF8FFF748F9FFF71AF9D12000F03A
:102FD000B7F8FFF741F900BF08E0FFF7C1FF207025
:102FE0000120FFF7E7F8641C701CC6B2681EB042EF
:102FF000F3DCFFF7B5FF20700020FFF7DBF8FFF7E9
:1030000019F9BDE8F08100001FB54FF48061084850
:10301000FDF7C3F807A1684601F078F96A46082170
:103020000020FFF7C3FD074800F02EFC1FBD000085
:10303000281200203C53455454494E47204D554ECC
:10304000453E0000040F00207047000030200EE0D5
:103050003949095C41F0800237490A5401F5207171
:10306000095C41F0010235490A54411CC8B250289C
:10307000EEDB3149803991F82D1141F00C022E49D7
:10308000803981F82D2191F82E1141F002022A4950
:10309000803981F82E2191F82F1141F00102264943
:1030A000803981F82F2191F8501141F00102224915
:1030B000803981F8502191F8511141F002021E49E6
:1030C000803981F8512191F8521141F00C021A49CE
:1030D000803981F8522191F8AD1241F03002164941
:1030E000803981F8AD2291F8AE1241F040021249C8
:1030F000803981F8AE2291F8AF1241F080020E497A
:10310000803981F8AF2291F8D01241F080020A494B
:10311000803981F8D02291F8D11241F0400206495D
:10312000803981F8D12291F8D21241F0300202495F
:10313000803981F8D2227047A8120020281500207B
:1031400070B50446002500BF21E004F0800020B1E6
:1031500080211048FEF73AFA03E080210D48FEF77F
:1031600033FAFDF724FF40210A48FEF72FFAFDF756
:103170001EFF40210748FEF727FA072D03D18021C3
:103180000448FEF723FA6006040E681CC5B2082D39
:10319000DBDB70BD000C014070B50446002500BFAC
:1031A00026E004F0800028B14FF480611248FEF759
:1031B0000DFA04E04FF480610F48FEF705FAFDF7C1
:1031C000FDFE4FF400610C48FEF700FAFDF7F6FE35
:1031D0004FF400610848FEF7F7F9072D04D14FF4CA
:1031E00080610548FEF7F2F96006040E681CC5B25E
:1031F000082DD6DB70BD0000000C014010B500F0BA
:1032000001F810BD0CB50020019000903348006813
:1032100040F480303149086000BF3048006800F455
:10322000003000900198401C0190009818B9019856
:10323000B0F5A06FF1D12948006800F4003010B15A
:103240000120009001E0002000900098012843D167
:103250002348006840F010002149086008460068D3
:1032600020F0030008600846006840F00200086093
:103270001A4840681949486008464068486008464E
:10328000406840F4806048600846406820F47C1044
:1032900048600846406840F4E81048600846006806
:1032A00040F08070086000BF0C48006800F00070BB
:1032B0000028F9D00948406820F003000749486019
:1032C0000846406840F00200486000BF034840687C
:1032D00000F00C000828F9D10CBD000000100240DD
:1032E0000020024000B50F480078C8B90E4909888F
:1032F000481CC11700EB5171C910A0EBC1010A4A6B
:10330000118011464988481CC11700EB5171C91042
:10331000A0EBC1015180012002490870FDF768FE51
:1033200000BD00000E120020061200202DE9F0471B
:103330000023002700240225064600BF24E0304673
:10334000002317E002EB0119BC4607F1010808F061
:10335000FF0719F80C90DFF838C00CEBC51A84464B
:1033600000F1010808F0FF000AF80C9003F1010CCD
:103370000CF0FF03102BE5DB05F1010C0CF0FF0551
:1033800004F1010C0CF0FF04042CD8DBBDE8F0873D
:10339000281200202DE9F0470024002700250E46C2
:1033A00000BF24E03146002417E003EB0219BC46BD
:1033B00007F1010808F0FF0719F80C90DFF838C092
:1033C0000CEBC01A8C4601F1010808F0FF010AF865
:1033D0000C9004F1010C0CF0FF04102CE5DB00F163
:1033E000010C0CF0FF0005F1010C0CF0FF05042DA1
:1033F000D8DBBDE8F08700002812002070470000ED
:1034000010B51348006840F00100114908600846F3
:103410004068104908400E494860084600680E4957
:1034200008400B4908600846006820F480200860C6
:103430000846406820F4FE0048604FF41F00886092
:10344000FFF7DCFE4FF000600449086010BD00008B
:10345000001002400000FFF8FFFFF6FE08ED00E05C
:1034600010B50B48007820B9FEF776F9012008491D
:103470000870FFF737FFFDF7D3FD06480078FFF728
:10348000F5FA0548FDF7AAFD0448FEF7B3F910BDAB
:103490000D1200208411002020A10700311B00081C
:1034A00010B50121164800F04BF838B315480078E4
:1034B000A0B1154801780078401C134A10701348D9
:1034C000007881420ADB0020114608700D4908701F
:1034D0000F48406940F001000D4948610D480078EF
:1034E00020B10D480088401C0B490880FEF77EFC87
:1034F000FEF7A2FC0121024800F013F810BD000005
:1035000000100040980000201700002099000020C3
:10351000001001401600002014000020CA4302825F
:103520007047CA430282704721B1028842F001020B
:10353000028004E002884FF6FE731A400280704752
:1035400030B50246002000230024158A05EA010355
:10355000958905EA010413B10CB1012000E00020B7
:1035600030BD1AB183890B43838102E083898B4389
:1035700083817047002202881D4B98420ED01D4B5C
:1035800098420BD0B0F1804F08D01B4B984205D029
:103590001A4B984202D01A4B984204D14FF68F73BF
:1035A0001A404B881A43174B984207D0164B984243
:1035B00004D04FF6FF431A40CB881A4302808B8811
:1035C00083850B8803850A4B98420BD0094B9842A0
:1035D00008D00E4B984205D00D4B984202D00D4BAF
:1035E000984201D10B7A0386012383827047000041
:1035F000002C01400034014000040040000800405D
:10360000000C004000100040001400400040014049
:10361000004401400048014070B50446FFF7F4FB48
:10362000FFF782FC2046FDF7D3FF204601F0BCF8EF
:10363000A0F5E1452846FFF759FCFFF775FC70BD82
:1036400070B504460D4604F5E1462946304601F0C2
:10365000E9F870BD10B5FFF771F900F095F810BDED
:103660000EB52FA1684600F051FE6A4614210020D5
:10367000FFF79CFA2D482EA14269684600F046FEED
:103680006A4600210120FFF791FA28482BA1026920
:10369000684600F03BFE6A4600210220FFF786FAEA
:1036A000224829A1C268684600F030FE6A4600211F
:1036B0000320FFF77BFA1D4826A18269684600F0C7
:1036C00025FE6A4600210420FFF770FA174824A15E
:1036D0008268684600F01AFE6A4600210520FFF75E
:1036E00065FA124821A14268684600F00FFE6A465A
:1036F00000210620FFF75AFA0C481FA1026868460D
:1037000000F004FE6A4600210720FFF74FFA082167
:10371000482000F059F81B48FEF76CF80EBD000079
:103720003C54494D455F5F5345543E007C000020AA
:10373000796561723A253464000000006D6F6E2077
:103740003A202025326400006D6461793A202025FA
:1037500032640000776461793A20202532640000E9
:10376000686F75723A202025326400006D696E2002
:103770003A20202532640000736563203A2020251A
:1037800032640000E51800080EB501211020FFF793
:1037900059FA42F20F70ADF804004720ADF800006E
:1037A00069460848FFF7E6FE01210648FFF7B6FE26
:1037B000012211460348FFF7D4FE01210148FFF71B
:1037C000B3FE0EBD0010004070B504460D462A48F9
:1037D00000782A490978884205D129480078294982
:1037E000097888423ED02B46224625480178224857
:1037F0000078FDF7EBF920480078204909788842E5
:1038000005DA1D480078401C1B4908700AE01A4878
:1038100000781A490978884204DD17480078401E6C
:10382000154908701648007816490978884205DA63
:1038300013480078401C124908700AE010480078CC
:1038400010490978884204DD0D480078401E0C4973
:1038500008702B4622460A48017807480078FDF791
:1038600053FD07E02B4622460548017802480078C0
:10387000FDF74AFD70BD000028000020290000204F
:103880002A0000202B00002010B504465D48006887
:103890005D490968884203D15C48007830284BD0E4
:1038A000594800680078574909680978884214DA4D
:1038B000564890F90000102808DC53480068C06999
:1038C0005149086030205149087035E04F48007870
:1038D000103840B24D4908702EE04B48006800781F
:1038E000484909680978884214DD484890F9000081
:1038F000602808DB4448006880694349086030203C
:103900004249087018E041480078103040B23F4901
:10391000087011E03D4890F90000302806DD3B4872
:103920000078103840B23949087005E0374800780F
:10393000103040B23549087033480068806908B3D8
:103940003148006880690078401EC2B22F48007874
:10395000303841B223460220FFF7E4F82A480068D5
:103960008069806970B12848006880698069007842
:10397000401EC2B225480078603841B2234602207A
:10398000FFF7D0F8204800680078401EC2B22346F6
:103990001E4890F900100220FFF7C4F81A4800688A
:1039A000C06908B318480068C0690078401EC2B2F8
:1039B000234616480078303041B20220FFF7B2F8B3
:1039C00011480068C069C06970B10F480068C069DB
:1039D000C0690078401EC2B223460C4800786030AF
:1039E00041B20220FFF79EF8FFF730FB064802685D
:1039F000521C00210720FFF7D9F80548FDF7FAFE11
:103A000010BD0000F0110020EC110020F411002086
:103A1000B51A000870B5002533480068006A3349BC
:103A2000086004E031480068C069304908602F48E8
:103A30000068C0690028F5D12C48006800782C493E
:103A4000087029480068006A2849086001241DE0C0
:103A5000284800680078A04211D1082C07DA2549CF
:103A60000968087824A20021FFF7A0F80CE022A240
:103A700000210720FFF79AF8E01FC5B204E01FA25B
:103A800000212046FFF792F8601CC4B21848007865
:103A9000401C8442DCDB04E014480068C069134920
:103AA0000860281EA5F10101CDB2F5D1012412E074
:103AB0000E480268521C08212046FFF777F80B4891
:103AC0000068C06900B90AE008480068C069074991
:103AD0000860601CC4B2064800788442E8DB00BF7E
:103AE0000748FDF787FE70BDE8110020E4110020B3
:103AF000F5110020F01100203E0000002000000021
:103B0000B51A00082DE9F04786B00024A146A24668
:103B100030480088FCF794FC074600222E4BFCF747
:103B20000FFC0546FCF7ADFC0FFA80FA2948008827
:103B3000FCF786FC07460022284BFCF701FC0546F3
:103B4000FCF79FFC0FFA80F90A2099FBF0F100FBCB
:103B50001195642099FBF0F00A2190FBF1F201FB32
:103B600012064FF47A7099FBF0F733463A461CA1DF
:103B700002A8009500F0CAFB25208DF80C0000205B
:103B80008DF80D0002AA11210720FFF70FF8FF2082
:103B9000154981F88003012404E08121134801556F
:103BA000601CC4B20F2CF8DB012407E00F48005D55
:103BB00040F07E010D480155601CC4B25445F5DB50
:103BC000FF21094880F88F13182180F8901306B060
:103BD000BDE8F0879A00002000806B3F008803401A
:103BE000256425642E25640028120020A8150020D5
:103BF00070B500260024002500BF21E0F101124825
:103C0000FCF7CBFA07240FE0002509E0601E0E49FF
:103C100001EBC010405D01EBC4114855681CC5B2F2
:103C2000802DF3DB601EC4B2002CEDDC8021064841
:103C3000FCF7B3FA05480078FEF718FF701CC6B20F
:103C4000082EDBDB70BD000028120020841100204C
:103C50002DE9F04F90B004460D46199F0020002139
:103C600000264FF0020CA04600BF17E000210FE035
:103C700003EB8509814407EB091919F80190EA461D
:103C80000AEB001A0AF8019001F1010909F0FF019D
:103C90001029EDDB00F1010909F0FF00C3F104096F
:103CA0008145E3DC002019E0002111E000EB8209EE
:103CB00007EB091919F80190C3F1040A8244EB4695
:103CC0000BEB0A1A0AF8019001F1010909F0FF0152
:103CD0001029EBDB00F1010909F0FF009842E3DB5A
:103CE000002620E04446002013E0E94609EB0619CF
:103CF00019F800A0DFF8389009EBCC1BA14604F1BD
:103D0000010E0EF0FF040BF809A000F1010909F003
:103D1000FF001028E9DB0CF1010909F0FF0C06F1A6
:103D2000010909F0FF06042EDCDB10B0BDE8F08FBE
:103D30002812002021B1828942F40052828104E0DD
:103D400082894DF6FF731A408281704700B585B0B5
:103D500001210420FEF786FF01218803FEF782FF80
:103D600018208DF803004FF40070ADF80000032018
:103D70008DF8020069461748FDF792FB04208DF884
:103D800003000002ADF8000069461248FDF788FB09
:103D90004FF4E13001900020ADF80800ADF80A00C2
:103DA000ADF80C000C20ADF80E000020ADF81000AE
:103DB00001A9094800F044F8FEF76BFD012240F22A
:103DC0002551054800F017F801210348FFF7B2FF1D
:103DD00005B000BD00080140003801400246002047
:103DE000B1F5007F00D100BF13880B400BB101205B
:103DF00000E000207047F0B50346002400260025AF
:103E0000002040F66A17B94200D100BF1846C1F33E
:103E1000421401F01F06012707FA06F5012C01D113
:103E20000C3004E0022C01D1103000E014301AB143
:103E300007682F43076002E00768AF430760F0BDE3
:103E40002DE9F04786B005460E460024A24600BF85
:103E5000A1460027B08900B100BF2F462C8A4CF63E
:103E6000FF700440F08804432C82AC894EF6F310B6
:103E70000440B08831890843718908430443AC8108
:103E8000AC8A4FF6FF400440B0890443AC8201A8DD
:103E9000FEF702FF1F48874202D1DDF810A001E0C3
:103EA000DDF80CA0A88900F4004040B10AEBCA007C
:103EB00000EB0A1031684900B0FBF1F807E00AEBAB
:103EC000CA0000EB0A1031688900B0FBF1F86420E9
:103ED000B8FBF0F004012009642101FB1089A889D6
:103EE00000F4004040B1322000EBC900B0FBF1F01B
:103EF00000F00700044308E0322000EB09106421C1
:103F0000B0FBF1F000F00F0004432C8106B0BDE8D7
:103F1000F087000000380140C1F30802828070473A
:103F200000BFFEE710B50AA200210846FEF73EFEDC
:103F30000CA200210520FEF739FE0E480078FEF79E
:103F400095FD0D48FDF741F8FCF76AFE10BD000035
:103F500066756E6374696F6E20697320766F69642D
:103F600000000000636F6D696E67206261636B2EF5
:103F70002E2E000084110020405489002DE9F047C6
:103F800088B00024BA484069B9490969CDE90010F0
:103F9000B748C3688069B74951F82020B6A104A882
:103FA00000F0B4F904AA00210846FEF7FFFDB64868
:103FB0000068012879D1AE4800680A2190FBF1F22F
:103FC00001FB1205AA48006890FBF1F6A84840687A
:103FD00090FBF1F201FB1207A548406890FBF1F855
:103FE000A348806890FBF1F201FB1209A0488068A9
:103FF00090FBF1FA4B465246A4A1A848CDE90087B0
:10400000CDE9026500F082F9FEF73CFF05469849CC
:10401000FFF716FB964800680A2190FBF1F201FBBE
:1040200012059348006890FBF1F69148406890FBB8
:10403000F1F201FB12078E48406890FBF1F88C48C2
:10404000806890FBF1F201FB12098948806890FBBF
:10405000F1FA4B4652468DA19148CDE90087CDE952
:10406000026500F053F900BF0EE08C4800578C4900
:104070000957884206D00120A0408A4909780843A0
:1040800088490870601CC4B2062CEEDB844991F9A3
:10409000050000EBD0714910A0EB410131B1824A1B
:1040A00028212020FFF742F905E007E07E4A2C2175
:1040B0002020FFF73BF90020734908607948007819
:1040C00000F03F0000287DD0784801780078401C3F
:1040D000764A1070042904D10020114608707149F5
:1040E00008707048007800F0200070B16E480090B1
:1040F0006B4840793038C2B2684840793038C1B234
:104100006A4803787020FFF7A3FD6648007800F046
:10411000100070B164480090614800793038C2B234
:104120005E4800793038C1B2604803786020FFF7FC
:104130008FFD5C48007800F0080070B15A4800908C
:104140005748C0783038C2B25448C0783038C1B20D
:10415000564803784020FFF77BFD5248007800F076
:10416000040070B1504800904D4880783038C2B299
:104170004A4880783038C1B24C4803783020FFF785
:1041800067FD4848007800F0020070B14648009092
:10419000434840783038C2B2404840783038C1B2E5
:1041A000424803781020FFF753FD3E48007800F0A6
:1041B000010080B13C480090394800783038C2B2E4
:1041C000364800E00BE000783038C1B23748037859
:1041D0000020FFF73DFD3648FCF7F7FE35E030489C
:1041E000407930388006010E2F4A7020FFF79EF884
:1041F0002B48007930388006010E2B4A6020FFF7EB
:1042000095F82748C07830388006010E264A4020AD
:10421000FFF78CF82248807830388006010E224A59
:104220003020FFF783F81E48407830388006010EB2
:104230001D4A1020FFF77AF81948007830388006B8
:10424000010E194A0020FFF771F81A48017800782A
:10425000401C184A10700A2904D100201146087029
:10426000FFF750FC1448FDF7C5FA08B0BDE8F08729
:104270007C0000205C00002025732025326420256E
:104280003264202534640000780000202564256411
:10429000256425642564256400000000F9110020D0
:1042A000FF110020F811002084090020F6110020E1
:1042B000E0930400F7110020B51A000870B5054618
:1042C0000C46FDF79DFFD020FEF73AFFFDF7C4FF37
:1042D0002846FEF735FFFDF7BFFF2046FEF730FF0B
:1042E000FDF7BAFFFDF7A6FF70BD00000FB4054B48
:1042F00010B503A9044A029800F02CF810BC5DF830
:1043000014FB0000A14600081C1200200FB4084B4B
:1043100010B504A902AA039800F01CF8044602A9EB
:10432000002000F0B8F9204610BC5DF814FB000036
:104330009746000802E008C8121F08C1002AFAD1F7
:1043400070477047002001E001C1121F002AFBD115
:10435000704700002DE9FF4F8BB0884605460026C8
:1043600006E025280BD0DDE90D1290476D1C761C68
:1043700028780028F5D10FB03046BDE8F08F002432
:10438000A146A2460122AE4900E0044315F8013FD0
:10439000203B02FA03F00842F7D128782A2810D0EF
:1043A0006FF02F022878A0F13001092915D809EB08
:1043B000890102EB410144F0020400EB01096D1C8C
:1043C000F0E758F8041B5FEA010903D544F40054F0
:1043D000C9F1000944F002046D1C28782E2817D179
:1043E00015F8010F44F004042A280ED06FF02F02B4
:1043F0002878A0F1300109290AD80AEB8A0102EBDA
:10440000410100EB010A6D1CF2E758F804AB6D1C8A
:1044100028786C280FD006DC4C2817D068280DD0DF
:104420006A2814D104E0742810D07A280FD10DE046
:1044300044F400140AE044F4801401E044F440140D
:104440006978814202D104F580146D1C6D1C2878B6
:10445000692865D006DC00288DD0632827D0642821
:1044600006D15DE06E2808D073282AD0752877D051
:10447000DDE90D129047761CE0E0C4F302500228FB
:1044800009D003280DD0D8F8001004280DD00E60F4
:1044900008F10408D2E0D8F80010F217C1E9006270
:1044A000F6E7D8F800100E80F2E70E70F0E718F883
:1044B000041B8DF8001000208DF80100EB46012050
:1044C00003E058F804BB4FF0FF3061074FF00007DE
:1044D00001D40AE07F1C57450DDA8742FADB1BF84E
:1044E00007100029F6D106E07F1C8742FCDB1BF891
:1044F00007100029F8D1DDE90D23A9EB070081465B
:10450000214600F0B1F83044C61904E0DDE90D128F
:104510001BF8010B90477F1EF8D22146484688E0E1
:1045200058F8040BC4F302514FF00A0B032900D1D1
:1045300000B2042900D140B2002802DA40422D2105
:1045400002E0210505D52B218DF82410012104E07E
:1045500006E0E10710D02021F6E708AF089113E04C
:1045600058F8040BC4F302514FF00A0B032900D191
:1045700080B2042900D1C0B20021EEE75946FBF712
:104580009FFF303107F8011D0028F7D1ADEB070080
:1045900000F1200B600702D524F4803401E04FF0D5
:1045A000010ADA4502DDAAEB0B0000E0002082469A
:1045B00000EB0B0108980144A9EB01000A90E0030D
:1045C00006D4DDE90D2321460A9800F04DF8064493
:1045D0004FF0000908E009A911F80900DDE90D1202
:1045E000904709F10109761C08998945F3DBE0033E
:1045F0000CD5DDE90D2321460A9800F035F8064474
:1046000004E0DDE90D1230209047761CBAF100017C
:10461000AAF1010AF5DC05E0DDE90D1217F8010B3E
:104620009047761CBBF10001ABF1010BF4DC0A985A
:104630002146DDE90D2300F005F806446D1C97E6E0
:10464000092801002DE9F041044600251E461746C1
:10465000880404D405E039462020B0476D1C641E50
:10466000F9D52846BDE8F0812DE9F0410446002542
:104670001E469046C80301D5302700E02027880455
:1046800004D505E041463846B0476D1C641EF9D597
:104690002846BDE8F0810A68531C0B601070704713
:1046A00070B504460D46E1B20548FFF735FC00BF82
:1046B00080210348FFF792FB0028F9D0204670BD07
:1046C0000038014010B5002821D0114B0022001FF6
:1046D000196803E0814203D80A4649680029F9D1E4
:1046E00052B11368841A9C4204D1006818441060C7
:1046F000104602E0506000E0186039B102680B1A01
:10470000934203D10B681A4402604968416010BDAE
:1047100020120020FCF776F9FDF76CFE08E0054951
:104720000968486AFCF7A0FF03480078FEF79EF985
:10473000F5E70000E811002084110020F0B50B30EF
:10474000154D20F007010024144A0FE003688B4246
:104750000BD38B4205D95E1A43184768C3E900673B
:1047600000E04368136002C004E0021D10680028E6
:10477000ECD12046002802D1286808B10020F0BD05
:10478000064A07481060074A121A22F00702C0E9D9
:10479000002401202860D7E72412002020120020E6
:1047A0007C1600207826002010B501460869801E7E
:1047B0000861002805DC08690C3008614869401E62
:1047C00048616423486990FBF3F04A69D31702EB10
:1047D0009373C0EBA3004FF4C87492FBF4F303444B
:1047E00040F26F14086960430C2490FBF4F0184405
:1047F000CB68034440F26D1402FB0430084BC01A2E
:1048000000EB40008B6803EBC000C0EB00104B686E
:1048100003EB8000C0EB00100B6803EB800010BDC1
:104820008BFA0A002DE9F04107460C462E48B7FBEB
:10483000F0F6B7FBF0F100FB11784FF4616098FBE4
:10484000F0F0A0604FF4616098FBF0F100FB118084
:104850003C2190FBF1F060604FF4616098FBF0F157
:1048600000FB11803C2190FBF1F201FB1200206063
:1048700040F2B27509E005F0030010B94FF4B770CB
:1048800001E040F26D10361A6D1C05F0030010B9FE
:104890004FF4B77001E040F26D10B042EBDD65619E
:1048A0006069C11700EB91718910A0EB810111B90A
:1048B0001D200E494860012505E0681E0B4951F88E
:1048C0002000361A6D1C681E084951F82000B042BD
:1048D000F3DD1C2048602561701CE0602046FCF779
:1048E00077FEBDE8F0810000805101002C0000201F
:1048F000000000001F0000003B0000005A00000004
:104900007800000097000000B5000000D40000000F
:10491000F300000011010000300100004E01000012
:104920005765640054756500467269004D6F6E00EE
:1049300053756E0053617400546875005C4900083B
:10494000000000202812000076060008C05200086F
:10495000281200205094000044430008412D010219
:104960000304040009160607080902040608343780
:10497000371F321C2908DA1E080912141330491B8C
:10498000082C041A24041A20041A38041A28041AB9
:10499000340401102A12883173E70702150572F8F2
:1049A00052331C100C0203A11C40C07803211C04CC
:1049B0003F04032127708888FC083017182020FF47
:1049C000211E37F008F08060181D310C031E1019ED
:1049D000112B8870B0100821232C192721100310E7
:1049E000120E3CE018046025071820403D02041810
:1049F000E0682B2018A71008404080F08040404F0E
:104A00000202010F01028839201B0101112A01CF86
:104A1000612A9066B1191CA91F111A30A4711BC01C
:104A200038B83A605F194D1D10080810522F0F104A
:104A30002020100FF15310F81E20203F2020E01AF4
:104A400008011AF0401D28242221441A300F29D2CF
:104A50003718202121221C2C8040303110080605F7
:104A600024243F242427F888888808081E19202039
:104A70002011EC36E0108888901B0F11111A1F3896
:104A8000193F4368183A3E9E1A702E29504B1C223B
:104A9000501AF06029902E01122222119011CBC0E1
:104AA000C0C272801925390F1C402010701E0102EF
:104AB000040810B03A4001213A02012119152A4098
:104AC0003219251B0402724B70487019502A375D49
:104AD0001D30C828E8702808071827282F28171223
:104AE0002A3859280A203C23020227382008D019E6
:104AF0002F4B203FD01BC030A01B08383019101995
:104B0000784B08F8B039201B100F103E8888E80851
:104B10001010AC23201810113A0370393F39402C83
:104B2000221E024019A41809F808203F2101012182
:104B3000252A0852298129424149112EC0808080AE
:104B40007F0E2FF888C0281808501C0126382F29FE
:104B500040292F29801B20301012F81AF8142E201B
:104B60003F013E014F4CF830C0601A2074123F4B99
:104B7000E010B06B0F10B029D01AF030198022016C
:104B800089203E282830504FC04C888870C0140CB3
:104B900030204B7088C11738202121221C3A189FE1
:104BA0004A188239A049D0112A1F90121F24087870
:104BB000881BC838151C07380E601A089F11292455
:104BC0001E033E013E0310481318688080681808D1
:104BD00020302C03032C30200838C82F5950298F3F
:104BE00029102F203826212020681145FE020202BC
:104BF000257F404040740438C02B01060B191D422C
:104C0000FE191D527F05130402020419EE39F1F951
:104C10001E448080801D19242412821B10F0114133
:104C20008F3F112020110E211A0E104B20110F233F
:104C300090F029F02A10B3191029201B1F24012AF3
:104C4000170F1CE09090171A20D029D13920192174
:104C50004F6B949494936060190F4C203F21F35450
:104C6000809898793059121AC02719D119303931E2
:104C70001F203F2406293021AC1010F830395E394E
:104C80002012202903190BC96079A019B02B201F0D
:104C9000DD390F8C80FF91E011191229E03B91FF63
:104CA0002D3950194112208A01C02A33E03A19E007
:104CB000394139525A104D190529606C103F204076
:104CC000114E030C300C035D29033809010E300C22
:104CD000073806011D39A14E310E2E31202C290531
:104CE0001D818678181F59D1216721302C2221304F
:104CF00044FC020245013E404072FF290854020272
:104D0000FC2C40403EAD19113D010202042F011060
:104D1000535E5E25060202061D08683C2A0312083F
:104D2000172C4CFE52742410080C522C1828547066
:104D3000380820704C5A6C64702981243C4282549B
:104D400082443C2714081E1E08141F10103C10102B
:104D5000107952C04A08012989612D402010088825
:104D60003D3C4442423B44047C7E27446462524CB6
:104D70004C17244442525C34280B20302828247ECF
:104D80002020204C0119F0280830484C4A4A302095
:104D90002914140C042D207C5C52284008081C5453
:104DA0005232140C5A50623AD0081A10402344422E
:104DB0002A1801311E4244242818981D0404525216
:104DC00040100838447C6A5A6C1C20084060182641
:104DD0002E38601E7E5252545C9039981A24101D51
:104DE000424444241019181B5252484E7E1212128B
:104DF00002B81C5254741019E63A10BA3A7E061BD7
:104E00002040012A3E182C181424302910198A1E1B
:104E10007E0E70700E22177E041830607E6A18F8BD
:104E200019501A14B829104C62647C1023344C1B9E
:104E30002C4C8922342D02027E7E704A3E5810117D
:104E4000020E386060180602067C700E1E603E027C
:104E50001D4224181868100902060C78780C060206
:104E6000476262524A46461DFE828280401D0418F7
:104E700020400845808282FE2A0201214A08014919
:104E800012411F6068686878708026504848483032
:104E90001A300769081A50B81A30202B68103925C3
:104EA0007C0A0A0A2FB0E8E8E8D0C8E819471938A0
:104EB000214378782D808080F809477E2010306863
:104EC000481A7E3E191D1C08787003115A78306903
:104ED000605AF8702A70682AF82A1921311B105874
:104EE000702A20A81D7C484840171A4001195917FC
:104EF00018304060300810090870601838403808D1
:104F00001C4870304B212C98B0C018113E4868687E
:104F1000585878111B7EEEF8213BFFFF981AFEBD12
:104F200029EE5601010202014B80C0012A80271F91
:104F3000F0FEFFFFFF071917037FFFFFFEF81A3F80
:104F40000F3AFF401AF809227F480D0103070F0F9F
:104F50000E0C0C0F0F0703404943911A0101192B46
:104F6000D1A91019CB193D1B0F0C08693D29D45943
:104F70008011641E1F195DC1FFFF3E201D70381C8B
:104F80000E6E39654D0E0F0D0C013C0E0F031F39CF
:104F900040193F61195B39163CC1FF7F3F19D92980
:104FA0009337030306FEFCF02C0307077B3D080C38
:104FB00006073F71292769CD6DE0701C0FB21809F3
:104FC000303C2E272120202010190689C31967693B
:104FD000C1193B690149ECB99155C0C3C3013D01F9
:104FE000FFFFFC804A04807A078059C23A80311E54
:104FF000E0FCFF87C1103CC0C38320AD7FFFFF836F
:1050000040111D0107070E425B0C0E40997F29805D
:105010003B0E0F174DE0F81E07782923ABFCFFEC81
:105020001119BDB1AB80C0B02D3E7FFFF10C2680C1
:10503000C17F7F1E180FF0FCFE0E03010103070F56
:105040001EFEFCF07E4C030706C03C0607036149C8
:10505000BE19BF516BFCFF6B3D03FFFEF8302A0FFA
:1050600030370C06E7FF7F1F2C07070F0F19BE799B
:105070009F01101B0C1E01B11B60F001015B380A7F
:1050800080C0E0E0E0C0C0E0FC01290A190F49CF70
:1050900021190C1813F3FFFFFF1FE7FBFBFD7D3DFC
:1050A0003D7DFDFBFBE71F111AF319411D070707A3
:1050B000CF0F180FF8E7DFDFBFBEBCBCBEBFDFDF1E
:1050C000E7F8111ACF19711B01030C3D0303073FC9
:1050D00001290A190FC9FE2AC001990C697E4138BD
:1050E0000BF8FEE6E78181E7677FFE01700A7E67C5
:1050F000E7DBDBE7E6FEF81A706D2812FF7F3F085A
:105100001212180F07070F181212087F7F140A25B2
:1051100070FD0A146001598413FFFFCC0F0301AE28
:105120006919410C117FFF800176A0A080FF7F0AE2
:10513000140101917819F0783C9C5C4C642030108B
:1051400010907810103020644C4C9C3C78F0201467
:105150000C030149574BFFFF95215C879CF00B5EC8
:10516000010F39E180541A032A49D6B4603C071F65
:10517000010302040408011A1E04C504040203FC0E
:10518000E0F03001FBF0E0E9595949013808878720
:105190008098B0E0C083B92059894FE1E101190D31
:1051A000078EFC03070601BA0782CDF808084801FC
:1051B000B40808F81961CA1501391489202993F136
:1051C000A9201983CC0F1F1001921F7819F0783C89
:1051D0009C5C4C6420301010907810103020644C8F
:1051E0004C9C3C78F0201A0CC849F76BFFFF675CB9
:1051F000879CF00B5E010F39E180F74A03F221B57D
:1052000080603C071F010302040408011A1E04BC4D
:10521000040402FED169C879CF8BF0F80116FCFEB8
:10522000FFFFFF500A3CF0C3063CF1030EF88B0F62
:105230001F013B3F7F2088080FC3603C8FC070E296
:10524000A98A59A1590741FCE0F03001A3F0E01907
:1052500053A9A03901380887878098B0E0C0A6B963
:10526000204A01013808E1E101190D070366FC033A
:105270000706010B100703FA24C0E0405A40559975
:10528000177808C06030180C0603BA480803070EE8
:105290000C18306028190EBD0C183870362A803270
:1052A000CB1C0E64350103060C1B040E4A017A4226
:1052B000301B3233023A340652332A0292B9AEC15D
:0400000508000145A9
:00000001FF
